:100000000C942A000C9447000C9447000C94470071
:100010000C9447000C9447000C9447000C94470044
:100020000C9447000C9447000C9447000C94470034
:100030000C9447000C9447000C9447000C94470024
:100040000C9447000C9447000C9447000C94470014
:100050000C94470011241FBECFE5D8E0DEBFCDBF12
:1000600013E0A0E6B0E0E2E7F4E102C005900D92F3
:10007000A431B107D9F723E0A4E1B3E001C01D9298
:10008000A531B207E1F70E942C040C94370A0C94B6
:10009000000087B18F7787B987B1806487B987B14E
:1000A0008F7D87B987B187B986B1806286B980B7FD
:1000B0008F7780BF80B78F7B80BF80B78F7D80BFF9
:1000C00086B1877F86B986B1876086B986B1806838
:1000D00086B9089597B1907E97B997B1892B87B962
:1000E00086B1806486B9349BFECF34B185B190E08F
:1000F000982F882726B1206126B9832B0895CF93A6
:10010000C82F40E063E082E00E94D7016C2F82E0BC
:100110000E94240141E063E083E00E94D70189EF5F
:1001200090E00197F1F700C0000040E063E083E059
:100130000E94D70189EF90E00197F1F700C000001D
:10014000CF9108956FEF82E00E940E0141E063E0DD
:1001500082E00E943A0141E063E083E00E943A01BC
:1001600083ED90E30197F1F700C0000088E30E945F
:100170007F008CE00E947F0081E00E947F0089EF79
:1001800090E00197F1F700C0000086E00E947F0038
:100190000895CF93C82F41E063E082E00E94D70129
:1001A0006C2F82E00E94240141E063E083E00E9422
:1001B000D70189EF90E00197F1F700C0000040E01F
:1001C00063E083E00E94D70189EF90E00197F1F7A7
:1001D00000C00000CF910895815019F0813031F0B6
:1001E00008958FE7860F0E947F0008958FEB860F9A
:1001F0000E947F0008950F931F93CF938C01C0E05E
:1002000003C00E94C900CF5FF801EC0FF11D80818F
:100210008111F7CFCF911F910F910895813049F04F
:1002200028F0823049F0833051F00CC06ABB80E086
:10023000089567BB80E0089564BB80E0089561BBCA
:1002400080E0089581E00895813049F028F08230FF
:1002500049F0833051F00CC06BBB80E0089568BB5F
:1002600080E0089565BB80E0089562BB80E008955A
:1002700081E00895883008F08EC0613049F138F08F
:10028000623009F446C0633009F464C086C041306E
:1002900071F44AB321E030E0B90102C0660F771F64
:1002A0008A95E2F7CB01842B8ABB80E00895411147
:1002B00076C04AB321E030E0B90102C0660F771F73
:1002C0008A95E2F7CB01809584238ABB80E008956C
:1002D000413071F447B321E030E0B90102C0660F4C
:1002E000771F8A95E2F7CB01842B87BB80E00895C6
:1002F000411157C047B321E030E0B90102C0660F99
:10030000771F8A95E2F7CB018095842387BB80E035
:100310000895413071F444B321E030E0B90102C0E6
:10032000660F771F8A95E2F7CB01842B84BB80E0B0
:100330000895411138C044B321E030E0B90102C052
:10034000660F771F8A95E2F7CB018095842384BBE3
:1003500080E00895413071F441B321E030E0B9010B
:1003600002C0660F771F8A95E2F7CB01842B81BB11
:1003700080E00895411119C041B321E030E0B90196
:1003800002C0660F771F8A95E2F7CB018095842320
:1003900081BB80E0089581E0089581E0089580E0C8
:1003A000089580E0089580E0089580E00895883001
:1003B00008F08EC0613049F138F0623009F446C06F
:1003C000633009F464C086C0413071F44BB321E05E
:1003D00030E0B90102C0660F771F8A95E2F7CB01C2
:1003E000842B8BBB80E00895411176C04BB321E094
:1003F00030E0B90102C0660F771F8A95E2F7CB01A2
:10040000809584238BBB80E00895413071F448B31C
:1004100021E030E0B90102C0660F771F8A95E2F74C
:10042000CB01842B88BB80E00895411157C048B3AD
:1004300021E030E0B90102C0660F771F8A95E2F72C
:10044000CB018095842388BB80E00895413071F40E
:1004500045B321E030E0B90102C0660F771F8A95ED
:10046000E2F7CB01842B85BB80E00895411138C0B1
:1004700045B321E030E0B90102C0660F771F8A95CD
:10048000E2F7CB018095842385BB80E0089541305D
:1004900071F442B321E030E0B90102C0660F771F6A
:1004A0008A95E2F7CB01842B82BB80E0089541114D
:1004B00019C042B321E030E0B90102C0660F771FD6
:1004C0008A95E2F7CB018095842382BB80E0089572
:1004D00081E0089581E0089580E0089580E0089526
:1004E00080E0089580E008956830C0F5813091F093
:1004F00028F08230D9F0833029F132C089B390E0FE
:1005000002C0959587956A95E2F78170FA0180831C
:1005100080E0089586B390E002C0959587956A952E
:10052000E2F78170FA01808380E0089583B390E060
:1005300002C0959587956A95E2F78170FA018083EC
:1005400080E0089580B390E002C0959587956A9504
:10055000E2F78170FA01808380E0089581E00895D8
:1005600081E00895CF93DF93C0E00DC0D4E0DC0FAD
:1005700040E061E08D2F0E943A0141E061E08D2F63
:100580000E94D701CF5FC43088F3C0E00BC041E0C8
:1005900061E08C2F0E943A0141E061E08C2F0E94C3
:1005A000D701CF5FC43098F3DF91CF910895FF92C8
:1005B0000F931F93CF93DF931F92CDB7DEB7FF2426
:1005C000FA9400E035C040E061E0802F0E94D7013E
:1005D00014E026C0AE014F5F5F4F612F81E00E94A3
:1005E0007402898181111BC0802F90E0212F30E09F
:1005F000A90144505109880F991F880F991F805AEB
:100600009F4FFC01E40FF51FF08086B390E0022EAF
:1006100002C0959587950A94E2F780FFF6CF1F5F99
:100620001830C0F241E061E0802F0E94D7010F5FD7
:10063000043048F28F2D0F90DF91CF911F910F91D1
:10064000FF9008950F931F93CF93DF9300D000D0B6
:1006500000D0CDB7DEB78C0181E3898382E38A8342
:1006600093E39B838C838D838E8343E050E0BE01B4
:100670006F5F7F4FC8010E942A0A892B61F043E017
:1006800050E0BE016C5F7F4FC8010E942A0A892B8F
:1006900021F482E003C083E001C080E026960FB61B
:1006A000F894DEBF0FBECDBFDF91CF911F910F91A8
:1006B0000895CF93DF931F92CDB7DEB7AE014F5FA2
:1006C0005F4F67E083E00E9474028981811138C026
:1006D00041E060E082E00E94D70161E081E00E9499
:1006E000EC0081E790E00E94FB0061E082E00E9464
:1006F000EC0080EC90E00E94FB002FEF84E39CE094
:10070000215080409040E1F700C000008091140328
:10071000811134C08DE00E94F8088AE00E94F80838
:1007200084E890E00E94E5088DE00E94F8088AE0E5
:100730000E94F80881E080931403109270001EC09C
:1007400040E060E082E00E94D7018091700081115A
:1007500013C08DE00E94F8088AE00E94F80888E93A
:1007600090E00E94E5088DE00E94F8088AE00E946F
:10077000F80881E080937000109214030F90DF91CD
:10078000CF910895CF92DF92EF92FF92CF93DF93B4
:1007900084E00E946A00BC0180E090E00E9473093E
:1007A00027ED33EA40E050E40E9401096B017C012F
:1007B00061E081E00E94EC0020E030E040EF51E495
:1007C000C701B6010E94250A1816D4F181E090E015
:1007D0003CC061E081E00E94EC008CEA90E00E9465
:1007E000FB0061E082E00E94EC008FEB90E00E9451
:1007F000FB0041E060E087E00E94D70141E060E05B
:1008000082E00E94D7010E94D702C82F20E030E08A
:1008100040EF51E4C701B6010E94FC0888230CF4A4
:10082000D0E0C33671F440E060E087E00E94D70179
:1008300040E060E082E00E94D70180E090E005C0E7
:10084000D1E0D111C6CF81E090E0DF91CF91FF9050
:10085000EF90DF90CF9008956F927F928F929F924A
:10086000AF92BF92CF92DF92EF92FF920F931F93BE
:10087000CF93DF93CDB7DEB72C970FB6F894DEBFDA
:100880000FBECDBF41E060E080E00E943A0141E050
:1008900060E081E00E943A0141E060E082E00E9475
:1008A0003A0141E060E083E00E943A0141E060E00B
:1008B00087E00E943A0140E060E084E00E943A0153
:1008C00040E063E087E00E943A0141E063E087E0B6
:1008D0000E94D7010E94A2000E9449000E94B20219
:1008E0000E94D7080E94490081E389838A838B8311
:1008F00082E38C838D838E8383ED90E00E94E508F4
:100900008DE00E94F8088AE00E94F8088DE00E94BD
:10091000F8088AE00E94F80884EF90E00E94E50859
:100920008DE00E94F8088AE00E94F80800E019E0D3
:10093000912CDD24D394BB24B3940E94590311233A
:1009400021F081E00E94C203182F0E94D702F82EE6
:100950002FEF821791F38DE3F81659F08F2D0E9437
:10096000E108E7E0F0E0EC0FFD1FE90DF11DF0827A
:1009700093949DE3F912E1CFCE0107960E942203E2
:10098000A82E8111F5C38DE00E94F8088AE00E942C
:10099000F8088AE091E00E94E5082FE986E891E0F6
:1009A000215080409040E1F700C00000E9C30E9460
:1009B0005903112321F081E00E94C203182F23E67E
:1009C000E216D1F0EE20C1F00E945903112321F06C
:1009D00081E00E94C203182F8DE00E94F8088AE08F
:1009E0000E94F8088FE191E00E94E5088DE00E94E6
:1009F000F8088AE00E94F8080E945903112321F0A8
:100A000081E00E94C203182F0E94D702F82E8FEFB8
:100A1000F81691F3112321F081E00E94C203182FF0
:100A20009DE3F91283C30E945903112321F081E051
:100A30000E94C203182FEAE0F0E0EC0FFD1FEC0D5E
:100A4000F11D108223E0A2120BC043E050E0BE0172
:100A50006F5F7F4FCE010A960E942A0A892B79F098
:100A600082E0A81248C343E050E0BE016C5F7F4FB4
:100A7000CE010A960E942A0A892B09F03CC30E94E3
:100A800059038DE00E94F8088AE00E94F80881E38B
:100A900091E00E94E5088DE00E94F8088AE00E943B
:100AA000F80822C30E945903112321F081E00E941B
:100AB000C203182F81E00E947F0082E491E00E942F
:100AC000FB009FEF24E38CE0915020408040E1F751
:100AD00000C0000007C30E94590361E081E00E944A
:100AE000EC0083E691E00E94FB0061E082E00E945E
:100AF000EC0081E591E00E94FB0001111BC08DE03C
:100B00000E94F8088AE00E94F80882E691E00E94BC
:100B1000E5088DE00E94F8088AE00E94F80884E762
:100B200091E00E94E5088DE00E94F8088AE00E94AA
:100B3000F80801E0112321F081E00E94C203182F80
:100B40000E94D7027C01882E112321F081E00E94AF
:100B5000C203182F9FEF891609F4C4C2FF2422E3B1
:100B6000E216F10409F41FC283E3E816F10409F464
:100B70008CC291E3E916F10409F0B3C20E94590353
:100B8000112321F081E00E94C203182F81E00E940E
:100B90007F008CE791E00E94FB008DE00E94F80846
:100BA0008AE00E94F8088CE791E00E94E5088DE059
:100BB0000E94F8088AE00E94F8082FEF84E39CE086
:100BC000215080409040E1F700C0000000E0882400
:100BD0008394E6C10E945903112321F081E00E9411
:100BE000C203182F61E081E00E94EC008DE891E0E3
:100BF0000E94FB0061E082E00E94EC008EE991E03F
:100C00000E94FB0001111BC08DE00E94F8088AE0E1
:100C10000E94F8088FEA91E00E94E5088DE00E94AA
:100C2000F8088AE00E94F80884EC91E00E94E50848
:100C30008DE00E94F8088AE00E94F80801E0112384
:100C400021F081E00E94C203182F0E94D7028F3F3B
:100C500009F4A6C199278233910509F47DC024F4D3
:100C6000C19709F473C099C18333910509F4FBC09E
:100C7000C49709F487C191C10E945903112321F03F
:100C800081E00E94C203182F61E081E00E94EC0025
:100C900089ED91E00E94FB0061E082E00E94EC009F
:100CA0008AEE91E00E94FB0001111BC08DE00E94C2
:100CB000F8088AE00E94F8088BEF91E00E94E508AE
:100CC0008DE00E94F8088AE00E94F80886E192E030
:100CD0000E94E5088DE00E94F8088AE00E94F8086A
:100CE00001E0112321F081E00E94C203182F0E942D
:100CF000D7028F3F71F199278233910559F08333E1
:100D00009105B1F0C19729F541E060E080E00E94D3
:100D1000D7011FC00E945903112321F081E00E94D6
:100D2000C203182F40E060E080E00E94D70111C0AC
:100D30000E945903112339F081E00E94C203182F49
:100D400000E0F12C06C000E0F12C03C000E0FF241D
:100D5000F394F11091CF24C10E945903112321F083
:100D600081E00E94C203182F00E06624639478C0DB
:100D70000E945903112321F081E00E94C203182F21
:100D800061E081E00E94EC0089ED91E00E94FB00AF
:100D900061E082E00E94EC008AEE91E00E94FB009C
:100DA00001111BC08DE00E94F8088AE00E94F8083B
:100DB00084E292E00E94E5088DE00E94F8088AE053
:100DC0000E94F80886E192E00E94E5088DE00E940A
:100DD000F8088AE00E94F80801E00E94D7027C012E
:100DE000782E112321F081E00E94C203182F2FEFEB
:100DF0007216B1F1FF2482E3E816F104B1F093E337
:100E0000E916F10401F121E3E216F10449F50E942B
:100E10005903112321F081E00E94C203182F41E001
:100E200060E081E00E94D7011BC00E94590311239A
:100E300021F081E00E94C203182F40E060E081E0D1
:100E40000E94D7010DC00E945903112339F081E09F
:100E50000E94C203182F00E0612C02C000E0612C48
:100E6000611086CF9DC00E945903112321F081E0BB
:100E70000E94C203182F0E945903112321F081E020
:100E80000E94C203182F00E07724739478C00E9458
:100E90005903112321F081E00E94C203182F61E061
:100EA00081E00E94EC0080E492E00E94FB0061E09F
:100EB00082E00E94EC0081E592E00E94FB000111BB
:100EC0001BC08DE00E94F8088AE00E94F80882E6C4
:100ED00092E00E94E5088DE00E94F8088AE00E94F6
:100EE000F80886E192E00E94E5088DE00E94F8088B
:100EF0008AE00E94F80801E00E94D7027C01882E57
:100F0000112321F081E00E94C203182F8FEF881671
:100F1000B1F1FF2492E3E916F104B1F023E3E21604
:100F2000F10401F181E3E816F10449F50E94590347
:100F3000112321F081E00E94C203182F41E060E0FC
:100F400083E00E94D7011BC00E945903112321F0A6
:100F500081E00E94C203182F40E060E083E00E941D
:100F6000D7010DC00E945903112339F081E00E947E
:100F7000C203182F00E0712C02C000E0712C711028
:100F800086CF01C000E00E945903112341F081E0A7
:100F90000E94C203182F812C03C000E001C0812CE5
:100FA000811018CE9FC00E945903112321F081E0C7
:100FB0000E94C203182F81E00E947F008EE792E01A
:100FC0000E94FB008DE00E94F8088AE00E94F80869
:100FD00080E992E00E94E5088DE00E94F8088AE02E
:100FE0000E94F8089FEF24E38CE09150204080405D
:100FF000E1F700C0000000E0EE24E39443C00E944B
:101000005903112321F081E00E94C203182F61E0EF
:1010100081E00E94EC008DE891E00E94FB0061E01D
:1010200082E00E94EC008EE991E00E94FB00011139
:101030001BC08DE00E94F8088AE00E94F80883EA4D
:1010400092E00E94E5088DE00E94F8088AE00E9484
:10105000F80888EB92E00E94E5088DE00E94F8080D
:101060008AE00E94F80801E00E94D702F82E1123BE
:1010700021F081E00E94C203182F94E3F91202C00C
:1010800000E0E12CE110BBCF2DC00E9459031123D9
:1010900021F081E00E94C203182F81E00E947F00AE
:1010A0008CEC92E00E94FB002FE78FE492E121504C
:1010B00080409040E1F700C000008DE00E94F808F9
:1010C0008AE00E94F8088CED92E00E94E5088DE02D
:1010D0000E94F8088AE00E94F80800E0D12CB12CA8
:1010E00001C000E0D110F7CCB110DCCC0F2EF3E63C
:1010F000EF2EF02D2EC0EA94EE2059F10E945903F4
:10110000112321F081E00E94C203182F8DE00E947C
:10111000F8088AE00E94F8088DEE92E00E94E50847
:1011200084E38E190E94F808C12C13C022E02C150C
:1011300008F462CC882483948C0CEAE0F0E0EC0F95
:10114000FD1FEC0DF11DF0828AE20E94F808C82C08
:1011500053CCE11012C00E9459038DE00E94F808A0
:101160008AE00E94F80884E093E00E94E50808C045
:101170000F2EF3E0EF2EF02DC12CE11018CCDDCBBB
:1011800080E090E02C960FB6F894DEBF0FBECDBF86
:10119000DF91CF911F910F91FF90EF90DF90CF9053
:1011A000BF90AF909F908F907F906F90089580E256
:1011B0008BB988E38AB986E880BD83E389B910BC1E
:1011C00008958CB95D9BFECF08950F931F93CF9325
:1011D0008C01C0E003C00E94E108CF5FF801EC0F72
:1011E000F11D80818111F7CFCF911F910F9108954B
:1011F0005D9BFECF8CB908950E94B00908F481E090
:1012000008950E9415090C94EB090E94E40958F016
:101210000E94DD0940F029F45F3F29F00C94D409C5
:1012200051110C941F0A0C94DA090E94FC0968F30E
:101230009923B1F3552391F3951B550BBB27AA278F
:1012400062177307840738F09F5F5F4F220F331FC9
:10125000441FAA1FA9F335D00E2E3AF0E0E832D091
:1012600091505040E695001CCAF72BD0FE2F29D094
:10127000660F771F881FBB1F261737074807AB0766
:10128000B0E809F0BB0B802DBF01FF2793585F4FDB
:101290003AF09E3F510578F00C94D4090C941F0A43
:1012A0005F3FE4F3983ED4F3869577956795B795BD
:1012B000F7959F5FC9F7880F911D9695879597F9C8
:1012C0000895E1E0660F771F881FBB1F6217730741
:1012D0008407BA0720F0621B730B840BBA0BEE1F56
:1012E00088F7E0950895E89409C097FB3EF490953F
:1012F0008095709561957F4F8F4F9F4F9923A9F0EF
:10130000F92F96E9BB279395F6958795779567957D
:10131000B795F111F8CFFAF4BB0F11F460FF1BC0C1
:101320006F5F7F4F8F4F9F4F16C0882311F096E954
:1013300011C0772321F09EE8872F762F05C0662302
:1013400071F096E8862F70E060E02AF09A95660FBB
:10135000771F881FDAF7880F9695879597F9089574
:10136000990F0008550FAA0BE0E8FEEF16161706B6
:10137000E807F907C0F012161306E407F50798F01E
:10138000621B730B840B950B39F40A2661F0232B37
:10139000242B252B21F408950A2609F4A140A695B3
:1013A0008FEF811D811D089597F99F6780E870E098
:1013B00060E008959FEF80EC089500240A941616CB
:1013C000170618060906089500240A941216130633
:1013D000140605060895092E0394000C11F48823C1
:1013E00052F0BB0F40F4BF2B11F460FF04C06F5FDD
:1013F0007F4F8F4F9F4F089557FD9058440F551FB3
:1014000059F05F3F71F04795880F97FB991F61F086
:101410009F3F79F087950895121613061406551FFD
:10142000F2CF4695F1DF08C0161617061806991F69
:10143000F1CF86957105610508940895E894BB275E
:1014400066277727CB0197F908950E94B00908F421
:101450008FEF0895FB01DC0104C08D91019080198C
:1014600021F441505040C8F7881B990B0895F89417
:02147000FFCFAC
:101472003738392F3435362A3132332D63303D2B0C
:10148200012072696E67696E67202020202020206B
:101492002020200020536F6D656F6E6520697320D8
:1014A20072696E67696E670020416E737765726557
:1014B200642020436F6E74696E75650020666972E0
:1014C20065202020202020202020202020200020F5
:1014D200202020202020202020202020202020200A
:1014E2002020002855736520283D2920617320455E
:1014F2006E746572206C696B65206B6579626F61D1
:10150200726429002057656C636F6D652120456EFA
:101512007465722049443A200A00204572726F7243
:101522002C2073797374656D20636C6F7365002072
:10153200456E7465722050617373776F72643A0AF4
:10154200002057656C636F6D652041646D696E2183
:101552000A002057656C636F6D6520486F6D6521C9
:1015620000332E457869742020202020202020205E
:10157200200020312E526F6F6D312020322E526F9B
:101582006F6D320020332E457869740020526F6FE0
:101592006D20312053656C656374656400312E4C97
:1015A20045445F312020322E4C45445F3200332EB9
:1015B20046414E2020202020342E4261636B0020C1
:1015C200312E4C45445F312020202020322E4C45C4
:1015D200445F320020332E46414E2020202020201E
:1015E2002020342E4261636B00312E4C45445F6FE4
:1015F2006E202020202020202000322E4C45445FE7
:101602006F666620332E4261636B0020312E4C459B
:10161200445F6F6E2020202020202020322E4C4557
:10162200445F6F66660020332E4261636B20202088
:101632002020200020312E4C45445F6F6E20202058
:101642002020202020322E4C45445F6F6666200009
:10165200312E46414E5F6F6E202020202020202018
:1016620000322E46414E5F6F666620332E42616322
:101672006B0020312E46414E5F6F6E2020202020CD
:10168200202020322E46414E5F6F666620002020C9
:10169200526F6F6D20322053656C65637465640010
:1016A2002020526F6F6D20322053656C6563746524
:1016B20064200020312E4C45445F3120202020320E
:1016C2002E4C45445F32200020332E46414E2020CE
:1016D20020202020342E4261636B2000204C6F6753
:1016E20067696E67206F75742E2E2E00204C6F670F
:1016F20067696E67206F75742E2E2E200020496E4A
:10170200636F72726563742C205472792041676131
:10171200696E0A002053797374656D206C6F636B78
:0417220065642E00CC
:00000001FF
